{
  "contractName": "Funding",
  "abi": [
    {
      "constant": true,
      "inputs": [
        {
          "internalType": "uint256",
          "name": "",
          "type": "uint256"
        }
      ],
      "name": "allFundings",
      "outputs": [
        {
          "internalType": "address payable",
          "name": "initiator",
          "type": "address"
        },
        {
          "internalType": "string",
          "name": "title",
          "type": "string"
        },
        {
          "internalType": "string",
          "name": "content",
          "type": "string"
        },
        {
          "internalType": "uint256",
          "name": "goalMoney",
          "type": "uint256"
        },
        {
          "internalType": "uint256",
          "name": "raisedMoney",
          "type": "uint256"
        },
        {
          "internalType": "uint256",
          "name": "usedMoney",
          "type": "uint256"
        },
        {
          "internalType": "uint256",
          "name": "deadline",
          "type": "uint256"
        },
        {
          "internalType": "bool",
          "name": "isSuccess",
          "type": "bool"
        },
        {
          "internalType": "uint256",
          "name": "fundersLength",
          "type": "uint256"
        },
        {
          "internalType": "uint256",
          "name": "proposalsLength",
          "type": "uint256"
        }
      ],
      "payable": false,
      "stateMutability": "view",
      "type": "function"
    },
    {
      "constant": true,
      "inputs": [],
      "name": "allFundingsLength",
      "outputs": [
        {
          "internalType": "uint256",
          "name": "",
          "type": "uint256"
        }
      ],
      "payable": false,
      "stateMutability": "view",
      "type": "function"
    },
    {
      "constant": false,
      "inputs": [
        {
          "internalType": "address payable",
          "name": "_initiator",
          "type": "address"
        },
        {
          "internalType": "string",
          "name": "_title",
          "type": "string"
        },
        {
          "internalType": "string",
          "name": "_content",
          "type": "string"
        },
        {
          "internalType": "uint256",
          "name": "_goalMoney",
          "type": "uint256"
        },
        {
          "internalType": "uint256",
          "name": "_remainingtime",
          "type": "uint256"
        }
      ],
      "name": "createFunding",
      "outputs": [
        {
          "internalType": "uint256",
          "name": "",
          "type": "uint256"
        }
      ],
      "payable": false,
      "stateMutability": "nonpayable",
      "type": "function"
    },
    {
      "constant": false,
      "inputs": [
        {
          "internalType": "uint256",
          "name": "_fundId",
          "type": "uint256"
        }
      ],
      "name": "contribute",
      "outputs": [],
      "payable": true,
      "stateMutability": "payable",
      "type": "function"
    },
    {
      "constant": false,
      "inputs": [
        {
          "internalType": "uint256",
          "name": "_fundId",
          "type": "uint256"
        },
        {
          "internalType": "string",
          "name": "_content",
          "type": "string"
        },
        {
          "internalType": "uint256",
          "name": "_amount",
          "type": "uint256"
        }
      ],
      "name": "createProposal",
      "outputs": [],
      "payable": false,
      "stateMutability": "nonpayable",
      "type": "function"
    },
    {
      "constant": false,
      "inputs": [
        {
          "internalType": "uint256",
          "name": "_fundId",
          "type": "uint256"
        },
        {
          "internalType": "uint256",
          "name": "_proposalId",
          "type": "uint256"
        },
        {
          "internalType": "bool",
          "name": "_isAgree",
          "type": "bool"
        }
      ],
      "name": "agreeProposal",
      "outputs": [],
      "payable": false,
      "stateMutability": "nonpayable",
      "type": "function"
    },
    {
      "constant": true,
      "inputs": [
        {
          "internalType": "uint256",
          "name": "_fundId",
          "type": "uint256"
        }
      ],
      "name": "getMyFundings",
      "outputs": [
        {
          "internalType": "uint256",
          "name": "",
          "type": "uint256"
        }
      ],
      "payable": false,
      "stateMutability": "view",
      "type": "function"
    },
    {
      "constant": true,
      "inputs": [
        {
          "internalType": "uint256",
          "name": "_fundId",
          "type": "uint256"
        },
        {
          "internalType": "uint256",
          "name": "_proposalId",
          "type": "uint256"
        }
      ],
      "name": "getProposal",
      "outputs": [
        {
          "internalType": "string",
          "name": "",
          "type": "string"
        },
        {
          "internalType": "uint256",
          "name": "",
          "type": "uint256"
        },
        {
          "internalType": "uint256",
          "name": "",
          "type": "uint256"
        },
        {
          "internalType": "uint256",
          "name": "",
          "type": "uint256"
        },
        {
          "internalType": "uint256",
          "name": "",
          "type": "uint256"
        },
        {
          "internalType": "bool",
          "name": "",
          "type": "bool"
        }
      ],
      "payable": false,
      "stateMutability": "view",
      "type": "function"
    },
    {
      "constant": true,
      "inputs": [
        {
          "internalType": "uint256",
          "name": "_fundId",
          "type": "uint256"
        }
      ],
      "name": "getProposalsLength",
      "outputs": [
        {
          "internalType": "uint256",
          "name": "",
          "type": "uint256"
        }
      ],
      "payable": false,
      "stateMutability": "view",
      "type": "function"
    },
    {
      "constant": true,
      "inputs": [],
      "name": "getBalance",
      "outputs": [
        {
          "internalType": "uint256",
          "name": "",
          "type": "uint256"
        }
      ],
      "payable": false,
      "stateMutability": "view",
      "type": "function"
    }
  ],
  "bytecode": "0x608060405234801561001057600080fd5b506112d4806100206000396000f3fe6080604052600436106100915760003560e01c8063a2268a4a11610059578063a2268a4a14610312578063a891bfa9146104b9578063aba2100914610595578063c1cbbca71461067a578063ce814ef5146106a857610091565b8063026f4aff146100965780630960702e146100e557806312065fe0146101345780633e1ea7481461015f57806395ecea1f1461018a575b600080fd5b3480156100a257600080fd5b506100cf600480360360208110156100b957600080fd5b81019080803590602001909291905050506106f9565b6040518082815260200191505060405180910390f35b3480156100f157600080fd5b5061011e6004803603602081101561010857600080fd5b8101908080359060200190929190505050610719565b6040518082815260200191505060405180910390f35b34801561014057600080fd5b5061014961082e565b6040518082815260200191505060405180910390f35b34801561016b57600080fd5b50610174610836565b6040518082815260200191505060405180910390f35b34801561019657600080fd5b506101c3600480360360208110156101ad57600080fd5b810190808035906020019092919050505061083c565b604051808b73ffffffffffffffffffffffffffffffffffffffff1673ffffffffffffffffffffffffffffffffffffffff16815260200180602001806020018a81526020018981526020018881526020018781526020018615151515815260200185815260200184815260200183810383528c818151815260200191508051906020019080838360005b8381101561026757808201518184015260208101905061024c565b50505050905090810190601f1680156102945780820380516001836020036101000a031916815260200191505b5083810382528b818151815260200191508051906020019080838360005b838110156102cd5780820151818401526020810190506102b2565b50505050905090810190601f1680156102fa5780820380516001836020036101000a031916815260200191505b509c5050505050505050505050505060405180910390f35b34801561031e57600080fd5b506104a3600480360360a081101561033557600080fd5b81019080803573ffffffffffffffffffffffffffffffffffffffff1690602001909291908035906020019064010000000081111561037257600080fd5b82018360208201111561038457600080fd5b803590602001918460018302840111640100000000831117156103a657600080fd5b91908080601f016020809104026020016040519081016040528093929190818152602001838380828437600081840152601f19601f8201169050808301925050505050505091929192908035906020019064010000000081111561040957600080fd5b82018360208201111561041b57600080fd5b8035906020019184600183028401116401000000008311171561043d57600080fd5b91908080601f016020809104026020016040519081016040528093929190818152602001838380828437600081840152601f19601f82011690508083019250505050505050919291929080359060200190929190803590602001909291905050506109ed565b6040518082815260200191505060405180910390f35b3480156104c557600080fd5b50610593600480360360608110156104dc57600080fd5b81019080803590602001909291908035906020019064010000000081111561050357600080fd5b82018360208201111561051557600080fd5b8035906020019184600183028401116401000000008311171561053757600080fd5b91908080601f016020809104026020016040519081016040528093929190818152602001838380828437600081840152601f19601f82011690508083019250505050505050919291929080359060200190929190505050610abd565b005b3480156105a157600080fd5b506105d8600480360360408110156105b857600080fd5b810190808035906020019092919080359060200190929190505050610ba9565b604051808060200187815260200186815260200185815260200184815260200183151515158152602001828103825288818151815260200191508051906020019080838360005b8381101561063a57808201518184015260208101905061061f565b50505050905090810190601f1680156106675780820380516001836020036101000a031916815260200191505b5097505050505050505060405180910390f35b6106a66004803603602081101561069057600080fd5b8101908080359060200190929190505050610cfa565b005b3480156106b457600080fd5b506106f7600480360360608110156106cb57600080fd5b810190808035906020019092919080359060200190929190803515159060200190929190505050610e0a565b005b600060016000838152602001908152602001600020600901549050919050565b6000806000905060006001600085815260200190815260200160002090506000600190505b81600801548111610823576107516111ca565b82600a0160008381526020019081526020016000206040518060400160405290816000820160009054906101000a900473ffffffffffffffffffffffffffffffffffffffff1673ffffffffffffffffffffffffffffffffffffffff1673ffffffffffffffffffffffffffffffffffffffff16815260200160018201548152505090503373ffffffffffffffffffffffffffffffffffffffff16816000015173ffffffffffffffffffffffffffffffffffffffff161415610815578060200151840193505b50808060010191505061073e565b508192505050919050565b600047905090565b60005481565b60016020528060005260406000206000915090508060000160009054906101000a900473ffffffffffffffffffffffffffffffffffffffff1690806001018054600181600116156101000203166002900480601f01602080910402602001604051908101604052809291908181526020018280546001816001161561010002031660029004801561090e5780601f106108e35761010080835404028352916020019161090e565b820191906000526020600020905b8154815290600101906020018083116108f157829003601f168201915b505050505090806002018054600181600116156101000203166002900480601f0160208091040260200160405190810160405280929190818152602001828054600181600116156101000203166002900480156109ac5780601f10610981576101008083540402835291602001916109ac565b820191906000526020600020905b81548152906001019060200180831161098f57829003601f168201915b5050505050908060030154908060040154908060050154908060060154908060070160009054906101000a900460ff1690806008015490806009015490508a565b6000806000549050600160008082825401925050819055506000600160008381526020019081526020016000209050878160000160006101000a81548173ffffffffffffffffffffffffffffffffffffffff021916908373ffffffffffffffffffffffffffffffffffffffff16021790555086816001019080519060200190610a779291906111fa565b5085816002019080519060200190610a909291906111fa565b50848160030181905550600081600401819055504284018160060181905550819250505095945050505050565b60006001600085815260200190815260200160002090503373ffffffffffffffffffffffffffffffffffffffff168160000160009054906101000a900473ffffffffffffffffffffffffffffffffffffffff1673ffffffffffffffffffffffffffffffffffffffff1614610b3057600080fd5b60006001826009015401905060018260090160008282540192505081905550600082600b016000838152602001908152602001600020905084816000019080519060200190610b809291906111fa565b508381600101819055506002836004015481610b9857fe5b048160040181905550505050505050565b60606000806000806000808810158015610bc557506000548811155b610bce57600080fd5b6000600160008a8152602001908152602001600020905060018810158015610bfa575080600901548911155b610c0357600080fd5b600081600b0160008a815260200190815260200160002090508060000181600101548260020154836003015484600401548560060160009054906101000a900460ff16858054600181600116156101000203166002900480601f016020809104026020016040519081016040528092919081815260200182805460018160011615610100020316600290048015610cdb5780601f10610cb057610100808354040283529160200191610cdb565b820191906000526020600020905b815481529060010190602001808311610cbe57829003601f168201915b5050505050955097509750975097509750975050509295509295509295565b60003411610d0757600080fd5b6001600082815260200190815260200160002060060154421115610d2a57600080fd5b600060016000838152602001908152602001600020905060006001826008015401905060018260080160008282540192505081905550600082600a0160008381526020019081526020016000209050338160000160006101000a81548173ffffffffffffffffffffffffffffffffffffffff021916908373ffffffffffffffffffffffffffffffffffffffff1602179055503481600101819055503483600401600082825401925050819055508260030154836004015410610e045760018360070160006101000a81548160ff0219169083151502179055505b50505050565b8260008110158015610e1e57506000548111155b610e2757600080fd5b600060016000838152602001908152602001600020905060008090506000600190505b82600801548111610f2a57610e5d6111ca565b83600a0160008381526020019081526020016000206040518060400160405290816000820160009054906101000a900473ffffffffffffffffffffffffffffffffffffffff1673ffffffffffffffffffffffffffffffffffffffff1673ffffffffffffffffffffffffffffffffffffffff16815260200160018201548152505090503373ffffffffffffffffffffffffffffffffffffffff16816000015173ffffffffffffffffffffffffffffffffffffffff161415610f1c57600192505b508080600101915050610e4a565b506001151581151514610f3c57600080fd5b600060016000888152602001908152602001600020905060018610158015610f68575080600901548711155b610f7157600080fd5b600081600b01600088815260200190815260200160002090506000600190505b826008015481116110db57610fa46111ca565b83600a0160008381526020019081526020016000206040518060400160405290816000820160009054906101000a900473ffffffffffffffffffffffffffffffffffffffff1673ffffffffffffffffffffffffffffffffffffffff1673ffffffffffffffffffffffffffffffffffffffff16815260200160018201548152505090503373ffffffffffffffffffffffffffffffffffffffff16816000015173ffffffffffffffffffffffffffffffffffffffff1614156110cd57871561109a57600183600501600084815260200190815260200160002081905550806020015183600201600082825401925050819055506110cc565b600283600501600084815260200190815260200160002081905550806020015183600301600082825401925050819055505b5b508080600101915050610f91565b5080600401548160020154106111925760018160060160006101000a81548160ff0219169083151502179055508160000160009054906101000a900473ffffffffffffffffffffffffffffffffffffffff1673ffffffffffffffffffffffffffffffffffffffff166108fc82600101549081150290604051600060405180830381858888f19350505050158015611176573d6000803e3d6000fd5b50806001015482600501600082825401925050819055506111c0565b80600401548160030154106111bf5760008160060160006101000a81548160ff0219169083151502179055505b5b5050505050505050565b6040518060400160405280600073ffffffffffffffffffffffffffffffffffffffff168152602001600081525090565b828054600181600116156101000203166002900490600052602060002090601f016020900481019282601f1061123b57805160ff1916838001178555611269565b82800160010185558215611269579182015b8281111561126857825182559160200191906001019061124d565b5b509050611276919061127a565b5090565b61129c91905b80821115611298576000816000905550600101611280565b5090565b9056fea265627a7a72315820857d69432a9318ae6ff18e3e92876226ba167e59d4af34bce2295e553ddd3f4964736f6c63430005100032",
  "source": "pragma solidity >=0.4.21 <0.7.0;\r\n\r\ncontract Funding{\r\n    struct Funder{\r\n        address payable add;\r\n        uint cost;\r\n    }\r\n    \r\n    struct Funding{\r\n        address payable initiator;\r\n        string title;//标题\r\n        string content;//内容 \r\n        uint goalMoney;\r\n        uint raisedMoney;\r\n        uint usedMoney;\r\n        uint deadline;\r\n        bool isSuccess;\r\n        uint fundersLength;\r\n        uint proposalsLength;\r\n        mapping(uint => Funder) funders;\r\n        mapping(uint => Proposal) proposals;\r\n    }\r\n    \r\n    struct Proposal{\r\n        string content;//where would be used\r\n        uint amount;\r\n        uint agreeAmount;\r\n        uint disAmount;\r\n        uint goal;//how many people agrees, this can be used\r\n        mapping(uint => uint) states;//0 is undefined, 1 is agree, 2 is disagree\r\n        bool isAgreed;\r\n    }\r\n    \r\n    uint public allFundingsLength;\r\n    mapping(uint => Funding) public allFundings;\r\n    \r\n    \r\n    function createFunding(address payable _initiator, string memory _title, string memory _content, uint _goalMoney, uint _remainingtime) public returns(uint) {\r\n        uint num = allFundingsLength;\r\n        allFundingsLength+=1;\r\n        Funding storage funding = allFundings[num];\r\n        funding.initiator = _initiator;\r\n        funding.title = _title;\r\n        funding.content = _content;\r\n        funding.goalMoney = _goalMoney;\r\n        funding.raisedMoney = 0;\r\n        funding.deadline = _remainingtime + now;\r\n        return num;\r\n    }\r\n    \r\n    function contribute(uint _fundId) public payable {\r\n        require(msg.value>0);\r\n        require(now<=allFundings[_fundId].deadline);\r\n        Funding storage funding = allFundings[_fundId];\r\n        uint funderNum = funding.fundersLength + 1;\r\n        funding.fundersLength += 1;\r\n        Funder storage funder = funding.funders[funderNum];\r\n        funder.add = msg.sender;\r\n        funder.cost = msg.value;\r\n        funding.raisedMoney += msg.value;\r\n        if(funding.raisedMoney >= funding.goalMoney)funding.isSuccess=true;\r\n    }\r\n    \r\n    function createProposal(uint _fundId, string memory _content, uint _amount) public {\r\n        Funding storage funding = allFundings[_fundId];\r\n        require(funding.initiator == msg.sender);\r\n        uint proNum = funding.proposalsLength + 1;\r\n        funding.proposalsLength+=1;\r\n        Proposal storage proposal = funding.proposals[proNum];\r\n        proposal.content = _content;\r\n        proposal.amount = _amount;\r\n        proposal.goal = funding.raisedMoney / 2;\r\n    }\r\n    \r\n    function agreeProposal(uint _fundId, uint _proposalId, bool _isAgree) public funderOfFunding(_fundId){\r\n        Funding storage funding = allFundings[_fundId];\r\n        require(_proposalId>=1 && _fundId<=funding.proposalsLength);\r\n        Proposal storage proposal = funding.proposals[_proposalId];\r\n        for(uint i = 1; i<=funding.fundersLength;i++){\r\n            Funder memory funder = funding.funders[i];\r\n            if(funder.add==msg.sender){\r\n                if(_isAgree){\r\n                    proposal.states[i]=1;\r\n                    proposal.agreeAmount += funder.cost;\r\n                }\r\n                else{\r\n                    proposal.states[i]=2;\r\n                    proposal.disAmount += funder.cost;\r\n                }\r\n            }\r\n        }\r\n        if(proposal.agreeAmount >= proposal.goal){\r\n            proposal.isAgreed = true;\r\n            funding.initiator.transfer(proposal.amount);\r\n            funding.usedMoney += proposal.amount;\r\n        }\r\n        else if(proposal.disAmount >=proposal.goal){\r\n            proposal.isAgreed = false;\r\n        }\r\n    }\r\n    \r\n    //make sure the funder is in this funding\r\n    modifier funderOfFunding(uint _fundId){\r\n        require(_fundId>=0 && _fundId<=allFundingsLength);\r\n        Funding storage funding = allFundings[_fundId];\r\n        bool isIn = false;\r\n        for(uint i = 1; i<=funding.fundersLength;i++){\r\n            Funder memory funder = funding.funders[i];\r\n            if(funder.add==msg.sender)\r\n            isIn = true;\r\n        }\r\n        require(isIn == true);\r\n        _;\r\n    }\r\n    function getMyFundings(uint _fundId) public view returns(uint){\r\n        uint money=0;\r\n        Funding storage funding = allFundings[_fundId];\r\n        for(uint j=1;j<=funding.fundersLength;j++){\r\n            Funder memory funder = funding.funders[j];\r\n            if(funder.add==msg.sender)\r\n                money+=funder.cost;\r\n        }\r\n        return money;\r\n    }\r\n\r\n    function getProposal(uint _fundId, uint _proposalId) public view returns(string memory, uint, uint, uint, uint, bool) {\r\n        require(_fundId>=0 && _fundId<=allFundingsLength);\r\n        Funding storage funding = allFundings[_fundId];\r\n        require(_proposalId>=1 && _fundId<=funding.proposalsLength);\r\n        Proposal storage proposal = funding.proposals[_proposalId];\r\n        return (proposal.content, proposal.amount, proposal.agreeAmount, proposal.disAmount, proposal.goal, proposal.isAgreed);\r\n    }\r\n\r\n    function getProposalsLength(uint _fundId) public view returns(uint){\r\n        return allFundings[_fundId].proposalsLength;\r\n    }\r\n\r\n    function getBalance() public view returns (uint) {\r\n        return address(this).balance;\r\n    }\r\n}",
  "sourcePath": "C:/Users/25695/Desktop/react-box-master/contracts/Funding.sol",
  "compiler": {
    "name": "solc",
    "version": "0.5.16+commit.9c3226ce.Emscripten.clang"
  },
  "schemaVersion": "3.3.3",
  "updatedAt": "2021-01-14T13:23:19.244Z",
  "networkType": "ethereum",
  "devdoc": {
    "methods": {}
  },
  "userdoc": {
    "methods": {}
  }
}