{
  "contractName": "CharityFunding",
  "abi": [
    {
      "constant": true,
      "inputs": [
        {
          "internalType": "uint256",
          "name": "",
          "type": "uint256"
        }
      ],
      "name": "allFundings",
      "outputs": [
        {
          "internalType": "address payable",
          "name": "initiator",
          "type": "address"
        },
        {
          "internalType": "string",
          "name": "title",
          "type": "string"
        },
        {
          "internalType": "string",
          "name": "content",
          "type": "string"
        },
        {
          "internalType": "uint256",
          "name": "goalMoney",
          "type": "uint256"
        },
        {
          "internalType": "uint256",
          "name": "raisedMoney",
          "type": "uint256"
        },
        {
          "internalType": "uint256",
          "name": "usedMoney",
          "type": "uint256"
        },
        {
          "internalType": "uint256",
          "name": "deadline",
          "type": "uint256"
        },
        {
          "internalType": "bool",
          "name": "isSuccess",
          "type": "bool"
        },
        {
          "internalType": "uint256",
          "name": "fundersLength",
          "type": "uint256"
        },
        {
          "internalType": "uint256",
          "name": "proposalsLength",
          "type": "uint256"
        }
      ],
      "payable": false,
      "stateMutability": "view",
      "type": "function"
    },
    {
      "constant": true,
      "inputs": [],
      "name": "allFundingsLength",
      "outputs": [
        {
          "internalType": "uint256",
          "name": "",
          "type": "uint256"
        }
      ],
      "payable": false,
      "stateMutability": "view",
      "type": "function"
    },
    {
      "constant": false,
      "inputs": [
        {
          "internalType": "address payable",
          "name": "_initiator",
          "type": "address"
        },
        {
          "internalType": "string",
          "name": "_title",
          "type": "string"
        },
        {
          "internalType": "string",
          "name": "_content",
          "type": "string"
        },
        {
          "internalType": "uint256",
          "name": "_goalMoney",
          "type": "uint256"
        },
        {
          "internalType": "uint256",
          "name": "_remainingtime",
          "type": "uint256"
        }
      ],
      "name": "createFunding",
      "outputs": [
        {
          "internalType": "uint256",
          "name": "",
          "type": "uint256"
        }
      ],
      "payable": false,
      "stateMutability": "nonpayable",
      "type": "function"
    },
    {
      "constant": false,
      "inputs": [
        {
          "internalType": "uint256",
          "name": "_fundId",
          "type": "uint256"
        }
      ],
      "name": "contribute",
      "outputs": [],
      "payable": true,
      "stateMutability": "payable",
      "type": "function"
    },
    {
      "constant": false,
      "inputs": [
        {
          "internalType": "uint256",
          "name": "_fundId",
          "type": "uint256"
        },
        {
          "internalType": "string",
          "name": "_content",
          "type": "string"
        },
        {
          "internalType": "uint256",
          "name": "_amount",
          "type": "uint256"
        }
      ],
      "name": "createProposal",
      "outputs": [],
      "payable": false,
      "stateMutability": "nonpayable",
      "type": "function"
    },
    {
      "constant": false,
      "inputs": [
        {
          "internalType": "uint256",
          "name": "_fundId",
          "type": "uint256"
        },
        {
          "internalType": "uint256",
          "name": "_proposalId",
          "type": "uint256"
        },
        {
          "internalType": "bool",
          "name": "_isAgree",
          "type": "bool"
        }
      ],
      "name": "agreeProposal",
      "outputs": [],
      "payable": false,
      "stateMutability": "nonpayable",
      "type": "function"
    },
    {
      "constant": true,
      "inputs": [
        {
          "internalType": "uint256",
          "name": "_fundId",
          "type": "uint256"
        },
        {
          "internalType": "uint256",
          "name": "_proposalId",
          "type": "uint256"
        }
      ],
      "name": "getProposal",
      "outputs": [
        {
          "internalType": "string",
          "name": "",
          "type": "string"
        },
        {
          "internalType": "uint256",
          "name": "",
          "type": "uint256"
        },
        {
          "internalType": "uint256",
          "name": "",
          "type": "uint256"
        },
        {
          "internalType": "uint256",
          "name": "",
          "type": "uint256"
        },
        {
          "internalType": "uint256",
          "name": "",
          "type": "uint256"
        },
        {
          "internalType": "bool",
          "name": "",
          "type": "bool"
        }
      ],
      "payable": false,
      "stateMutability": "view",
      "type": "function"
    },
    {
      "constant": true,
      "inputs": [
        {
          "internalType": "uint256",
          "name": "_fundId",
          "type": "uint256"
        }
      ],
      "name": "getMyFundings",
      "outputs": [
        {
          "internalType": "uint256",
          "name": "",
          "type": "uint256"
        }
      ],
      "payable": false,
      "stateMutability": "view",
      "type": "function"
    },
    {
      "constant": true,
      "inputs": [
        {
          "internalType": "uint256",
          "name": "_fundId",
          "type": "uint256"
        }
      ],
      "name": "getMyInitFundings",
      "outputs": [
        {
          "internalType": "bool",
          "name": "",
          "type": "bool"
        }
      ],
      "payable": false,
      "stateMutability": "view",
      "type": "function"
    },
    {
      "constant": true,
      "inputs": [
        {
          "internalType": "uint256",
          "name": "_fundId",
          "type": "uint256"
        }
      ],
      "name": "getProposalsLength",
      "outputs": [
        {
          "internalType": "uint256",
          "name": "",
          "type": "uint256"
        }
      ],
      "payable": false,
      "stateMutability": "view",
      "type": "function"
    },
    {
      "constant": true,
      "inputs": [],
      "name": "getBalance",
      "outputs": [
        {
          "internalType": "uint256",
          "name": "",
          "type": "uint256"
        }
      ],
      "payable": false,
      "stateMutability": "view",
      "type": "function"
    }
  ],
  "bytecode": "0x608060405234801561001057600080fd5b506113bd806100206000396000f3fe60806040526004361061009c5760003560e01c806395ecea1f1161006457806395ecea1f146101e8578063a2268a4a14610370578063a891bfa914610517578063aba21009146105f3578063c1cbbca7146106d8578063ce814ef5146107065761009c565b8063026f4aff146100a15780630960702e146100f057806312065fe01461013f5780633e1ea7481461016a57806363e4f6df14610195575b600080fd5b3480156100ad57600080fd5b506100da600480360360208110156100c457600080fd5b8101908080359060200190929190505050610757565b6040518082815260200191505060405180910390f35b3480156100fc57600080fd5b506101296004803603602081101561011357600080fd5b8101908080359060200190929190505050610777565b6040518082815260200191505060405180910390f35b34801561014b57600080fd5b5061015461088c565b6040518082815260200191505060405180910390f35b34801561017657600080fd5b5061017f610894565b6040518082815260200191505060405180910390f35b3480156101a157600080fd5b506101ce600480360360208110156101b857600080fd5b810190808035906020019092919050505061089a565b604051808215151515815260200191505060405180910390f35b3480156101f457600080fd5b506102216004803603602081101561020b57600080fd5b8101908080359060200190929190505050610916565b604051808b73ffffffffffffffffffffffffffffffffffffffff1673ffffffffffffffffffffffffffffffffffffffff16815260200180602001806020018a81526020018981526020018881526020018781526020018615151515815260200185815260200184815260200183810383528c818151815260200191508051906020019080838360005b838110156102c55780820151818401526020810190506102aa565b50505050905090810190601f1680156102f25780820380516001836020036101000a031916815260200191505b5083810382528b818151815260200191508051906020019080838360005b8381101561032b578082015181840152602081019050610310565b50505050905090810190601f1680156103585780820380516001836020036101000a031916815260200191505b509c5050505050505050505050505060405180910390f35b34801561037c57600080fd5b50610501600480360360a081101561039357600080fd5b81019080803573ffffffffffffffffffffffffffffffffffffffff169060200190929190803590602001906401000000008111156103d057600080fd5b8201836020820111156103e257600080fd5b8035906020019184600183028401116401000000008311171561040457600080fd5b91908080601f016020809104026020016040519081016040528093929190818152602001838380828437600081840152601f19601f8201169050808301925050505050505091929192908035906020019064010000000081111561046757600080fd5b82018360208201111561047957600080fd5b8035906020019184600183028401116401000000008311171561049b57600080fd5b91908080601f016020809104026020016040519081016040528093929190818152602001838380828437600081840152601f19601f8201169050808301925050505050505091929192908035906020019092919080359060200190929190505050610ac7565b6040518082815260200191505060405180910390f35b34801561052357600080fd5b506105f16004803603606081101561053a57600080fd5b81019080803590602001909291908035906020019064010000000081111561056157600080fd5b82018360208201111561057357600080fd5b8035906020019184600183028401116401000000008311171561059557600080fd5b91908080601f016020809104026020016040519081016040528093929190818152602001838380828437600081840152601f19601f82011690508083019250505050505050919291929080359060200190929190505050610b9f565b005b3480156105ff57600080fd5b506106366004803603604081101561061657600080fd5b810190808035906020019092919080359060200190929190505050610c8b565b604051808060200187815260200186815260200185815260200184815260200183151515158152602001828103825288818151815260200191508051906020019080838360005b8381101561069857808201518184015260208101905061067d565b50505050905090810190601f1680156106c55780820380516001836020036101000a031916815260200191505b5097505050505050505060405180910390f35b610704600480360360208110156106ee57600080fd5b8101908080359060200190929190505050610ddc565b005b34801561071257600080fd5b506107556004803603606081101561072957600080fd5b810190808035906020019092919080359060200190929190803515159060200190929190505050610eec565b005b600060016000838152602001908152602001600020600901549050919050565b6000806000905060006001600085815260200190815260200160002090506000600190505b81600801548111610881576107af6112b3565b82600a0160008381526020019081526020016000206040518060400160405290816000820160009054906101000a900473ffffffffffffffffffffffffffffffffffffffff1673ffffffffffffffffffffffffffffffffffffffff1673ffffffffffffffffffffffffffffffffffffffff16815260200160018201548152505090503373ffffffffffffffffffffffffffffffffffffffff16816000015173ffffffffffffffffffffffffffffffffffffffff161415610873578060200151840193505b50808060010191505061079c565b508192505050919050565b600047905090565b60005481565b60003373ffffffffffffffffffffffffffffffffffffffff166001600084815260200190815260200160002060000160009054906101000a900473ffffffffffffffffffffffffffffffffffffffff1673ffffffffffffffffffffffffffffffffffffffff161461090c57600061090f565b60015b9050919050565b60016020528060005260406000206000915090508060000160009054906101000a900473ffffffffffffffffffffffffffffffffffffffff1690806001018054600181600116156101000203166002900480601f0160208091040260200160405190810160405280929190818152602001828054600181600116156101000203166002900480156109e85780601f106109bd576101008083540402835291602001916109e8565b820191906000526020600020905b8154815290600101906020018083116109cb57829003601f168201915b505050505090806002018054600181600116156101000203166002900480601f016020809104026020016040519081016040528092919081815260200182805460018160011615610100020316600290048015610a865780601f10610a5b57610100808354040283529160200191610a86565b820191906000526020600020905b815481529060010190602001808311610a6957829003601f168201915b5050505050908060030154908060040154908060050154908060060154908060070160009054906101000a900460ff1690806008015490806009015490508a565b6000806000549050600160008082825401925050819055506000600160008381526020019081526020016000209050878160000160006101000a81548173ffffffffffffffffffffffffffffffffffffffff021916908373ffffffffffffffffffffffffffffffffffffffff16021790555086816001019080519060200190610b519291906112e3565b5085816002019080519060200190610b6a9291906112e3565b508481600301819055506000816004018190555060008160050181905550838160060181905550819250505095945050505050565b60006001600085815260200190815260200160002090503373ffffffffffffffffffffffffffffffffffffffff168160000160009054906101000a900473ffffffffffffffffffffffffffffffffffffffff1673ffffffffffffffffffffffffffffffffffffffff1614610c1257600080fd5b60006001826009015401905060018260090160008282540192505081905550600082600b016000838152602001908152602001600020905084816000019080519060200190610c629291906112e3565b508381600101819055506002836004015481610c7a57fe5b048160040181905550505050505050565b60606000806000806000808810158015610ca757506000548811155b610cb057600080fd5b6000600160008a8152602001908152602001600020905060018810158015610cdc575080600901548911155b610ce557600080fd5b600081600b0160008a815260200190815260200160002090508060000181600101548260020154836003015484600401548560060160009054906101000a900460ff16858054600181600116156101000203166002900480601f016020809104026020016040519081016040528092919081815260200182805460018160011615610100020316600290048015610dbd5780601f10610d9257610100808354040283529160200191610dbd565b820191906000526020600020905b815481529060010190602001808311610da057829003601f168201915b5050505050955097509750975097509750975050509295509295509295565b60003411610de957600080fd5b6001600082815260200190815260200160002060060154421115610e0c57600080fd5b600060016000838152602001908152602001600020905060006001826008015401905060018260080160008282540192505081905550600082600a0160008381526020019081526020016000209050338160000160006101000a81548173ffffffffffffffffffffffffffffffffffffffff021916908373ffffffffffffffffffffffffffffffffffffffff1602179055503481600101819055503483600401600082825401925050819055508260030154836004015410610ee65760018360070160006101000a81548160ff0219169083151502179055505b50505050565b8260008110158015610f0057506000548111155b610f0957600080fd5b600060016000838152602001908152602001600020905060008090506000600190505b8260080154811161100c57610f3f6112b3565b83600a0160008381526020019081526020016000206040518060400160405290816000820160009054906101000a900473ffffffffffffffffffffffffffffffffffffffff1673ffffffffffffffffffffffffffffffffffffffff1673ffffffffffffffffffffffffffffffffffffffff16815260200160018201548152505090503373ffffffffffffffffffffffffffffffffffffffff16816000015173ffffffffffffffffffffffffffffffffffffffff161415610ffe57600192505b508080600101915050610f2c565b50600115158115151461101e57600080fd5b60006001600088815260200190815260200160002090506001861015801561104a575080600901548711155b61105357600080fd5b600081600b01600088815260200190815260200160002090506000600190505b826008015481116111c4576110866112b3565b83600a0160008381526020019081526020016000206040518060400160405290816000820160009054906101000a900473ffffffffffffffffffffffffffffffffffffffff1673ffffffffffffffffffffffffffffffffffffffff1673ffffffffffffffffffffffffffffffffffffffff16815260200160018201548152505090503373ffffffffffffffffffffffffffffffffffffffff16816000015173ffffffffffffffffffffffffffffffffffffffff1614156111b65760011515881515141561118357600183600501600084815260200190815260200160002081905550806020015183600201600082825401925050819055506111b5565b600283600501600084815260200190815260200160002081905550806020015183600301600082825401925050819055505b5b508080600101915050611073565b50806004015481600201541061127b5760018160060160006101000a81548160ff0219169083151502179055508160000160009054906101000a900473ffffffffffffffffffffffffffffffffffffffff1673ffffffffffffffffffffffffffffffffffffffff166108fc82600101549081150290604051600060405180830381858888f1935050505015801561125f573d6000803e3d6000fd5b50806001015482600501600082825401925050819055506112a9565b80600401548160030154106112a85760008160060160006101000a81548160ff0219169083151502179055505b5b5050505050505050565b6040518060400160405280600073ffffffffffffffffffffffffffffffffffffffff168152602001600081525090565b828054600181600116156101000203166002900490600052602060002090601f016020900481019282601f1061132457805160ff1916838001178555611352565b82800160010185558215611352579182015b82811115611351578251825591602001919060010190611336565b5b50905061135f9190611363565b5090565b61138591905b80821115611381576000816000905550600101611369565b5090565b9056fea265627a7a72315820a58634e0a8f21a6054e2578e168410094388c308962766fce6eab34c0295f43c64736f6c63430005100032",
  "source": "pragma solidity >=0.4.21 <0.7.0;\r\n\r\ncontract CharityFunding{\r\n    struct Funder{\r\n        address payable add;\r\n        uint cost;\r\n    }\r\n    \r\n    struct Funding{\r\n        address payable initiator;\r\n        string title;//标题\r\n        string content;//内容 \r\n        uint goalMoney;\r\n        uint raisedMoney;\r\n        uint usedMoney;\r\n        uint deadline;\r\n        bool isSuccess;\r\n        uint fundersLength;\r\n        uint proposalsLength;\r\n        mapping(uint => Funder) funders;\r\n        mapping(uint => Proposal) proposals;\r\n    }\r\n    \r\n    struct Proposal{\r\n        string content;//where would be used\r\n        uint amount;\r\n        uint agreeAmount;\r\n        uint disAmount;\r\n        uint goal;//how many people agrees, this can be used\r\n        mapping(uint => uint) states;//0 is undefined, 1 is agree, 2 is disagree\r\n        bool isAgreed;\r\n    }\r\n    \r\n    uint public allFundingsLength;\r\n    mapping(uint => Funding) public allFundings;\r\n    \r\n    \r\n    function createFunding(address payable _initiator, string memory _title, string memory _content, uint _goalMoney, uint _remainingtime) public returns(uint) {\r\n        uint num = allFundingsLength;\r\n        allFundingsLength+=1;\r\n        Funding storage funding = allFundings[num];\r\n        funding.initiator = _initiator;\r\n        funding.title = _title;\r\n        funding.content = _content;\r\n        funding.goalMoney = _goalMoney;\r\n        funding.raisedMoney = 0;\r\n        funding.usedMoney = 0;\r\n        funding.deadline = _remainingtime;\r\n        return num;\r\n    }\r\n    \r\n    function contribute(uint _fundId) public payable {\r\n        require(msg.value>0);\r\n        require(now<=allFundings[_fundId].deadline);\r\n        Funding storage funding = allFundings[_fundId];\r\n        uint funderNum = funding.fundersLength + 1;\r\n        funding.fundersLength += 1;\r\n        Funder storage funder = funding.funders[funderNum];\r\n        funder.add = msg.sender;\r\n        funder.cost = msg.value;\r\n        funding.raisedMoney += msg.value;\r\n        if(funding.raisedMoney >= funding.goalMoney)funding.isSuccess=true;\r\n    }\r\n    \r\n    function createProposal(uint _fundId, string memory _content, uint _amount) public {\r\n        Funding storage funding = allFundings[_fundId];\r\n        require(funding.initiator == msg.sender);\r\n        uint proNum = funding.proposalsLength + 1;\r\n        funding.proposalsLength+=1;\r\n        Proposal storage proposal = funding.proposals[proNum];\r\n        proposal.content = _content;\r\n        proposal.amount = _amount;\r\n        proposal.goal = funding.raisedMoney / 2; \r\n    }\r\n    \r\n    function agreeProposal(uint _fundId, uint _proposalId, bool _isAgree) public funderOfFunding(_fundId){\r\n        Funding storage funding = allFundings[_fundId];\r\n        require(_proposalId>=1 && _fundId<=funding.proposalsLength);\r\n        Proposal storage proposal = funding.proposals[_proposalId];\r\n        for(uint i = 1; i<=funding.fundersLength;i++){\r\n            Funder memory funder = funding.funders[i];\r\n            if(funder.add==msg.sender){\r\n                if(_isAgree == true){\r\n                    proposal.states[i]=1;\r\n                    proposal.agreeAmount += funder.cost;\r\n                }\r\n                else{\r\n                    proposal.states[i]=2;\r\n                    proposal.disAmount += funder.cost;\r\n                }\r\n            }\r\n        }\r\n        if(proposal.agreeAmount >= proposal.goal){\r\n            proposal.isAgreed = true;\r\n            funding.initiator.transfer(proposal.amount);\r\n            funding.usedMoney += proposal.amount;\r\n        }\r\n        else if(proposal.disAmount >=proposal.goal){\r\n            proposal.isAgreed = false;\r\n        }\r\n    }\r\n    \r\n    function getProposal(uint _fundId, uint _proposalId) public view returns(string memory, uint, uint, uint, uint, bool) {\r\n        require(_fundId>=0 && _fundId<=allFundingsLength);\r\n        Funding storage funding = allFundings[_fundId];\r\n        require(_proposalId>=1 && _fundId<=funding.proposalsLength);\r\n        Proposal storage proposal = funding.proposals[_proposalId];\r\n        return (proposal.content, proposal.amount, proposal.agreeAmount, proposal.disAmount, proposal.goal, proposal.isAgreed);\r\n    }\r\n    \r\n    //make sure the funder is in this funding\r\n    modifier funderOfFunding(uint _fundId){\r\n        require(_fundId>=0 && _fundId<=allFundingsLength);\r\n        Funding storage funding = allFundings[_fundId];\r\n        bool isIn = false;\r\n        for(uint i = 1; i<=funding.fundersLength;i++){\r\n            Funder memory funder = funding.funders[i];\r\n            if(funder.add==msg.sender)\r\n            isIn = true;\r\n        }\r\n        require(isIn == true);\r\n        _;\r\n    }\r\n    \r\n    function getMyFundings(uint _fundId) public view returns(uint){\r\n        uint money=0;\r\n        Funding storage funding = allFundings[_fundId];\r\n        for(uint j=1;j<=funding.fundersLength;j++){\r\n            Funder memory funder = funding.funders[j];\r\n            if(funder.add==msg.sender)\r\n            money+=funder.cost;\r\n        }\r\n        return money;\r\n    }\r\n    \r\n    function getMyInitFundings(uint _fundId) public view returns(bool){\r\n        return (allFundings[_fundId].initiator == msg.sender ? true:false);\r\n    }\r\n    \r\n    function getProposalsLength(uint _fundId) public view returns(uint){\r\n        return allFundings[_fundId].proposalsLength;\r\n    }\r\n    \r\n    function getBalance() public view returns (uint) {\r\n        return address(this).balance;\r\n    }\r\n}",
  "sourcePath": "D:/浙大/大三上/区块链/Charity Funding/contracts/CharityFunding.sol",
  "compiler": {
    "name": "solc",
    "version": "0.5.16+commit.9c3226ce.Emscripten.clang"
  },
  "schemaVersion": "3.3.3",
  "updatedAt": "2021-01-14T16:24:22.497Z",
  "networkType": "ethereum",
  "devdoc": {
    "methods": {}
  },
  "userdoc": {
    "methods": {}
  }
}